:1000000029C0000038C0000035C0000033C0000027
:1000100031C000002FC000002DC000002BC0000028
:1000200029C0000027C0000025C0000023C0000038
:1000300021C000001FC000001DC000001BC0000048
:1000400019C0000017C0000015C0000013C0000058
:1000500011C0000011241FBECFE5D8E0DEBFCDBF28
:1000600020E0A0E6B0E001C01D92A136B207E1F7A2
:1000700013D02EC0C5CF1F920F920FB60F9211242E
:100080008F9380916000865F809360008F910F90C6
:100090000FBE0F901F901895B898C09A8FEF85BB30
:1000A00080E4809360008CBF91E693BFBB9A8A98EE
:1000B000929A8BBF82E085BF789422E091E0C0994C
:1000C00002C095BB01C025BB809160008CBFF7CFFB
:0400D000F894FFCFD2
:00000001FF
