:1000000029C0000042C0000040C000003EC0000007
:100010003CC000003AC0000038C00000CCC0000066
:1000200034C0000032C0000030C000002EC000000C
:100030002CC000002AC0000028C0000026C000001C
:1000400024C0000022C0000020C000001EC000002C
:100050001CC0000011241FBECFE5D8E0DEBFCDBF1D
:1000600010E0A0E6B0E0E4E4F2E002C005900D92FA
:10007000A436B107D9F720E0A4E6B0E001C01D9294
:10008000A736B207E1F7CAD0DBC0BACF86E886B997
:1000900083E687B9089580916400813049F018F0B3
:1000A000823059F00EC08BB3897F81608BBB09C051
:1000B0008BB38A7F82608BBB04C08BB38C7F8460E0
:1000C0008BBB80916000813049F018F0823059F08C
:1000D00008958BB38F7C88608BBB08958BB3877D2D
:1000E00080618BBB08958BB3877E80628BBB089544
:1000F00080916400813081F018F08230C9F0089559
:100100008091650081111EC081E080936400809120
:10011000620080936500089580916500811112C08E
:1001200082E080936400809161008093650008956F
:1001300080916500811106C0109264008091630077
:1001400080936500089580916000813081F018F0FF
:100150008230C9F008958091660081111EC081E04F
:100160008093600080916200809366000895809182
:100170006600811112C082E080936000809161006E
:1001800080936600089580916600811106C01092E8
:100190006000809163008093660008951DBC1CBCC4
:1001A00088E09DE39BBD8ABD1FBC8DE08EBD80E1D4
:1001B00089BF789408951F920F920FB60F92112461
:1001C0002F933F934F935F936F937F938F939F935F
:1001D000AF93BF93EF93FF9380916500882319F04D
:1001E00081508093650084DF80916600882319F038
:1001F000815080936600A7DF4EDFFF91EF91BF91A2
:10020000AF919F918F917F916F915F914F913F91AE
:100210002F910F900FBE0F901F9018958FE38ABB00
:10022000BB9834DFBBDF8FEF84BB81BB8091630061
:100230008093650080916100809366002CDFFFCF82
:04024000F894FFCF60
:0402440002030206A9
:00000001FF
