:1000000029C000003AC0000038C0000036C000001F
:1000100034C0000032C0000030C000002EC000001C
:100020002CC000002AC0000028C0000026C000002C
:1000300024C0000022C0000020C000001EC000003C
:100040001CC000001AC0000018C0000016C000004C
:1000500014C0000011241FBECFE5D8E0DEBFCDBF25
:1000600010E0A0E6B0E0EEE5F1E002C005900D92F0
:10007000AA36B107D9F764D070C0C2CF87E886B975
:1000800083E687B90895CF93DF93CDB7DEB72A977C
:100090000FB6F894DEBF0FBECDBF9AE0E0E6F0E009
:1000A000DE01119601900D929A95E1F72DEC829F59
:1000B000212D1124269526952695322F330F932F27
:1000C000990F990F930F891BE1E0F0E0EC0FFD1FF2
:1000D000E80FF11D808185BB462F50E081E090E064
:1000E000FC0102C0EE0FFF1F6A95E2F7BF016095A9
:1000F00062BBEFE5F9E03197F1F700C00000E1E005
:10010000F0E0EC0FFD1FE20FF11D208125BB9A01ED
:100110002F5F3F4F02C0880F991F2A95E2F7809505
:1001200082BB8FE599E00197F1F700C000002A96A5
:100130000FB6F894DEBF0FBECDBFDF91CF9108950B
:10014000D398BB989BDF8FEF84BB81BB60E08CE0D2
:0E0150009ADF62E082E297DFF9CFF894FFCFEA
:0A015E003F06DBCFE6EDFD07FFEFE3
:00000001FF
