S01C0000747261666669634C69676874476363426F6172642E737265633C
S113000029C000003AC0000038C0000036C000001B
S113001034C0000032C0000030C000002EC0000018
S11300202CC000002AC0000028C0000026C0000028
S113003024C0000022C0000020C000001EC0000038
S11300401CC000001AC0000018C0000016C0000048
S113005014C0000011241FBECFE5D8E0DEBFCDBF21
S113006010E0A0E6B0E0EEE3F1E002C005900D92EE
S1130070AA36B107D9F757D060C0C2CF87E886B98E
S113008083E687B90895CF93DF93CDB7DEB72A9778
S11300900FB6F894DEBF0FBECDBF9AE0E0E6F0E005
S11300A0DE01119601900D929A95E1F79DEC899FDE
S11300B0912D1124969596959695392F330F232FCC
S11300C0220F220F230F821BE1E0F0E0EC0FFD1F53
S11300D0E80FF11D808185BB81E082BB2FEF34E303
S11300E08CE0215030408040E1F700C00000E1E0A6
S11300F0F0E0EC0FFD1FE90FF11D808185BB82E06C
S113010082BB9FEF24E33CE0915020403040E1F774
S113011000C000002A960FB6F894DEBF0FBECDBF14
S1130120DF91CF910895D398BB98A8DF8FEF84BB5C
S111013083E081BB8AE0A7DFFDCFF894FFCF08
S10D013E3F06A58D1949411F010970
S9030000FC
