S01C0000747261666669634C69676874476363426F6172642E737265633C
S113000029C0000042C0000040C000003EC0000003
S11300103CC000003AC0000038C000003BC10000F2
S113002034C0000032C0000030C000002EC0000008
S11300302CC000002AC0000028C0000026C0000018
S113004024C0000022C0000020C000001EC0000028
S11300501CC0000011241FBECFE5D8E0DEBFCDBF19
S113006010E0A0E6B0E0ECEAF7E002C005900D92E3
S1130070AC36B107D9F720E0ACE6B0E001C01D9280
S1130080A237B207E1F739D18FC3BACF87E886B96F
S113009086E487B9089597B1907F8F70892B87B9CB
S11300A0369A3499FECF349A84B195B10895CF939A
S11300B0DF93CDB7DEB72A970FB6F894DEBF0FBE35
S11300C0CDBF9AE0E1E6F0E0DE01119601900D92D9
S11300D09A95E1F72DEC829F212D112426952695E2
S11300E02695322F330F932F990F990F930F891B56
S11300F0E1E0F0E0EC0FFD1FE80FF11D808185BB0E
S1130100462F50E081E090E0FC0102C0EE0FFF1F9B
S11301106A95E2F7BF01609562BBFFE33DE063E0EF
S1130120F15030406040E1F700C00000E1E0F0E051
S1130130EC0FFD1FE20FF11D208125BB9A012F5FFB
S11301403F4F02C0880F991F2A95E2F7809582BB22
S11301507FE38DE093E0715080409040E1F700C070
S113016000002A960FB6F894DEBF0FBECDBFDF9114
S1130170CF91089580916C00813049F018F082305D
S113018059F00EC08BB3897F81608BBB09C08BB3E0
S11301908A7F82608BBB04C08BB38C7F84608BBBF3
S11301A080916000813049F018F0823059F0089550
S11301B08BB38F7C88608BBB08958BB3877D806104
S11301C08BBB08958BB3877E80628BBB089580912F
S11301D06C00813081F018F08230C9F0089580916C
S11301E06E0081111EC081E080936C0080917100CB
S11301F080936E00089580916E00811112C082E098
S113020080936C0080916D0080936E0008958091BE
S11302106E00811106C010926C0080917000809372
S11302206E00089580916000813081F018F0823072
S1130230C9F0089580916F0081111EC081E0809300
S113024060008091710080936F00089580916F0029
S1130250811112C082E08093600080916D008093D0
S11302606F00089580916F00811106C010926000A4
S11302708091700080936F0008951DBC1CBC88E0C1
S11302809DE39BBD8ABD1FBC8DE08EBD80E189BF0F
S1130290789408951F920F920FB60F9211242F9302
S11302A03F934F935F936F937F938F939F93AF93FA
S11302B0BF93EF93FF9380916E00882319F08150D0
S11302C080936E0084DF80916F00882319F0815041
S11302D080936F00A7DF4EDFFF91EF91BF91AF9145
S11302E09F918F917F916F915F914F913F912F914A
S11302F00F900FBE0F901F9018958FE38ABB8BB39E
S11303008F738BBBBB988FEF84BB81BBBFDEB5DF24
S11303108091700080936E0080916D0080936F00D7
S113032029DF86E0B8DE8C0187E0B5DEEC01C80188
S1130330A0E0B0E0880F991FAA1FBB1F880F991F68
S1130340AA1FBB1FAC01BD01440F551F661F771FB9
S1130350440F551F661F771F8C019D01040F151F45
S1130360261F371FC901B8012ED120E030EC4FE71A
S113037054E495D020E030E040E252E42CD0F7D0B1
S1130380162F60937000BE0180E090E01CD120E045
S113039030EC4FE754E483D020E030E040E85FE302
S11303A01AD0E5D060937100612F70E080E090E096
S11303B00CD120E030E040E45FE393D1D8D06093E7
S11303C06D0060E080916E0072DE62E080916F00EB
S11303D06EDEA7CF5058BB27AA270ED048C139D10B
S11303E030F03ED120F031F49F3F11F41EF42EC1C1
S11303F00EF4E095E7FB24C1E92F4AD180F3BA1744
S1130400620773078407950718F071F49EF562C1BB
S11304100EF4E0950B2EBA2FA02D0B01B90190011B
S11304200C01CA01A0011124FF27591B99F0593F5F
S113043050F4503E68F11A16F040A22F232F342FA7
S11304404427585FF3CF469537952795A795F040F5
S11304505395C9F77EF41F16BA0B620B730B840B0A
S1130460BAF09150A1F0FF0FBB1F661F771F881FC2
S1130470C2F70EC0BA0F621F731F841F48F487951A
S113048077956795B795F7959E3F08F0B3CF939509
S1130490880F08F09927EE0F9795879508950CD04B
S11304A0E6C0DED040F0D5D030F021F45F3F19F043
S11304B0C7C0511110C1CAC0EBD098F39923C9F336
S11304C05523B1F3951B550BBB27AA276217730756
S11304D0840738F09F5F5F4F220F331F441FAA1F0A
S11304E0A9F333D00E2E3AF0E0E830D091505040CA
S11304F0E695001CCAF729D0FE2F27D0660F771F78
S1130500881FBB1F261737074807AB07B0E809F059
S1130510BB0B802DBF01FF2793585F4F2AF09E3FEE
S1130520510568F08DC0D7C05F3FECF3983EDCF313
S1130530869577956795B795F7959F5FC9F7880F67
S1130540911D9695879597F90895E1E0660F771FB9
S1130550881FBB1F621773078407BA0720F0621B4A
S1130560730B840BBA0BEE1F88F7E095089598D0AF
S113057088F09F5790F0B92F9927B751A0F0D1F088
S1130580660F771F881F991F1AF0BA95C9F712C012
S1130590B13081F09FD0B1E008959CC0672F782FCF
S11305A08827B85F39F0B93FCCF38695779567957E
S11305B0B395D9F73EF490958095709561957F4FEA
S11305C08F4F9F4F0895E89409C097FB3EF4909590
S11305D08095709561957F4F8F4F9F4F9923A9F018
S11305E0F92F96E9BB279395F695879577956795A7
S11305F0B795F111F8CFFAF4BB0F11F460FF1BC0EB
S11306006F5F7F4F8F4F9F4F16C0882311F096E97D
S113061011C0772321F09EE8872F762F05C066232B
S113062071F096E8862F70E060E02AF09A95660FE4
S1130630771F881FDAF7880F9695879597F908959D
S113064097F99F6780E870E060E008959FEF80EC81
S1130650089500240A941616170618060906089524
S113066000240A9412161306140605060895092E8A
S11306700394000C11F4882352F0BB0F40F4BF2BF9
S113068011F460FF04C06F5F7F4F8F4F9F4F089539
S113069057FD9058440F551F59F05F3F71F047952F
S11306A0880F97FB991F61F09F3F79F08795089514
S11306B0121613061406551FF2CF4695F1DF08C033
S11306C0161617061806991FF1CF86957105610550
S11306D008940895E894BB2766277727CB0197F9F8
S11306E008950BD0C4CFB5DF28F0BADF18F09523F6
S11306F009F0A6CFABCF1124EECFCADFA0F3959FAC
S1130700D1F3950F50E0551F629FF001729FBB27F4
S1130710F00DB11D639FAA27F00DB11DAA1F649FA0
S11307206627B00DA11D661F829F2227B00DA11D53
S1130730621F739FB00DA11D621F839FA00D611DD9
S1130740221F749F3327A00D611D231F849F600DFA
S1130750211D822F762F6A2F11249F5750408AF033
S1130760E1F088234AF0EE0FFF1FBB1F661F771FBF
S1130770881F91505040A9F79E3F510570F060CFFB
S1130780AACF5F3FECF3983EDCF3869577956795A7
S1130790B795F795E7959F5FC1F7FE2B880F911DDD
S10F07A09695879597F90895F894FFCF7B
S10F07AC023F06DBCFE6EDFD07FFEF0087
S9030000FC
